{
  "_format": "hh-sol-artifact-1",
  "contractName": "WavePortal",
  "sourceName": "contracts/WavePortal.sol",
  "abi": [
    {
      "inputs": [],
      "stateMutability": "payable",
      "type": "constructor"
    },
    {
      "anonymous": false,
      "inputs": [
        {
          "indexed": true,
          "internalType": "address",
          "name": "from",
          "type": "address"
        },
        {
          "indexed": false,
          "internalType": "uint256",
          "name": "timestamp",
          "type": "uint256"
        },
        {
          "indexed": false,
          "internalType": "string",
          "name": "message",
          "type": "string"
        }
      ],
      "name": "NewWave",
      "type": "event"
    },
    {
      "inputs": [
        {
          "internalType": "address",
          "name": "_wallet",
          "type": "address"
        }
      ],
      "name": "alreadyExists",
      "outputs": [
        {
          "internalType": "bool",
          "name": "",
          "type": "bool"
        }
      ],
      "stateMutability": "view",
      "type": "function"
    },
    {
      "inputs": [],
      "name": "getAllWaves",
      "outputs": [
        {
          "components": [
            {
              "internalType": "address",
              "name": "waver",
              "type": "address"
            },
            {
              "internalType": "string",
              "name": "message",
              "type": "string"
            },
            {
              "internalType": "uint256",
              "name": "timestamp",
              "type": "uint256"
            }
          ],
          "internalType": "struct WavePortal.Wave[]",
          "name": "",
          "type": "tuple[]"
        }
      ],
      "stateMutability": "view",
      "type": "function"
    },
    {
      "inputs": [],
      "name": "getTotalWaves",
      "outputs": [
        {
          "internalType": "uint256",
          "name": "",
          "type": "uint256"
        }
      ],
      "stateMutability": "view",
      "type": "function"
    },
    {
      "inputs": [
        {
          "internalType": "address",
          "name": "",
          "type": "address"
        }
      ],
      "name": "lastWavedAt",
      "outputs": [
        {
          "internalType": "uint256",
          "name": "",
          "type": "uint256"
        }
      ],
      "stateMutability": "view",
      "type": "function"
    },
    {
      "inputs": [
        {
          "internalType": "string",
          "name": "_message",
          "type": "string"
        }
      ],
      "name": "wave",
      "outputs": [],
      "stateMutability": "nonpayable",
      "type": "function"
    }
  ],
  "bytecode": "0x60806040526200004f6040518060400160405280600b81526020017f636f6e7374727563746f720000000000000000000000000000000000000000008152506200007760201b620008041760201c565b606444426200005f9190620001c4565b6200006b919062000261565b60028190555062000308565b62000117816040516024016200008e919062000184565b6040516020818303038152906040527f41304fac000000000000000000000000000000000000000000000000000000007bffffffffffffffffffffffffffffffffffffffffffffffffffffffff19166020820180517bffffffffffffffffffffffffffffffffffffffffffffffffffffffff83818316178352505050506200011a60201b60201c565b50565b60008151905060006a636f6e736f6c652e6c6f679050602083016000808483855afa5050505050565b60006200015082620001a8565b6200015c8185620001b3565b93506200016e8185602086016200022b565b6200017981620002f7565b840191505092915050565b60006020820190508181036000830152620001a0818462000143565b905092915050565b600081519050919050565b600082825260208201905092915050565b6000620001d18262000221565b9150620001de8362000221565b9250827fffffffffffffffffffffffffffffffffffffffffffffffffffffffffffffffff0382111562000216576200021562000299565b5b828201905092915050565b6000819050919050565b60005b838110156200024b5780820151818401526020810190506200022e565b838111156200025b576000848401525b50505050565b60006200026e8262000221565b91506200027b8362000221565b9250826200028e576200028d620002c8565b5b828206905092915050565b7f4e487b7100000000000000000000000000000000000000000000000000000000600052601160045260246000fd5b7f4e487b7100000000000000000000000000000000000000000000000000000000600052601260045260246000fd5b6000601f19601f8301169050919050565b61141f80620003186000396000f3fe608060405234801561001057600080fd5b50600436106100575760003560e01c8063449d46c01461005c5780635b843f53146100785780639a2cdc08146100a8578063a42a4663146100c6578063bd43a908146100f6575b600080fd5b61007660048036038101906100719190610be6565b610114565b005b610092600480360381019061008d9190610bbd565b61057f565b60405161009f9190610f1a565b60405180910390f35b6100b0610650565b6040516100bd919061105c565b60405180910390f35b6100e060048036038101906100db9190610bbd565b61069b565b6040516100ed919061105c565b60405180910390f35b6100fe6106b3565b60405161010b9190610ef8565b60405180910390f35b42610384600360003373ffffffffffffffffffffffffffffffffffffffff1673ffffffffffffffffffffffffffffffffffffffff168152602001908152602001600020546101629190611179565b106101a2576040517f08c379a00000000000000000000000000000000000000000000000000000000081526004016101999061103c565b60405180910390fd5b42600360003373ffffffffffffffffffffffffffffffffffffffff1673ffffffffffffffffffffffffffffffffffffffff1681526020019081526020016000208190555060016000808282546101f89190611179565b9250508190555061023f6040518060400160405280601681526020017f257320776176656420772f206d65737361676520257300000000000000000000815250338361089d565b600460405180606001604052803373ffffffffffffffffffffffffffffffffffffffff16815260200183815260200142815250908060018154018082558091505060019003906000526020600020906003020160009091909190915060008201518160000160006101000a81548173ffffffffffffffffffffffffffffffffffffffff021916908373ffffffffffffffffffffffffffffffffffffffff16021790555060208201518160010190805190602001906102fe929190610a9d565b506040820151816002015550506064600254424461031c9190611179565b6103269190611179565b61033091906112d4565b60028190555061033f3361057f565b6103e6576001339080600181540180825580915050600190039060005260206000200160009091909190916101000a81548173ffffffffffffffffffffffffffffffffffffffff021916908373ffffffffffffffffffffffffffffffffffffffff1602179055506103e56040518060400160405280601281526020017f73746f726564206e6577206164647265737300000000000000000000000000008152503361093c565b5b60326002541161052c5761042f6040518060400160405280600781526020017f257320776f6e21000000000000000000000000000000000000000000000000008152503361093c565b6000655af3107a400090504781111561047d576040517f08c379a000000000000000000000000000000000000000000000000000000000815260040161047490610ffc565b60405180910390fd5b60003373ffffffffffffffffffffffffffffffffffffffff16826040516104a390610ee3565b60006040518083038185875af1925050503d80600081146104e0576040519150601f19603f3d011682016040523d82523d6000602084013e6104e5565b606091505b5050905080610529576040517f08c379a00000000000000000000000000000000000000000000000000000000081526004016105209061101c565b60405180910390fd5b50505b3373ffffffffffffffffffffffffffffffffffffffff167f5f7e16dc676677766a70e9c5628aa6c54ddb8b6e5188e2ae1e1f17f1ffbea7164283604051610574929190611077565b60405180910390a250565b6000806000905060005b60018054905081101561064657600181815481106105d0577f4e487b7100000000000000000000000000000000000000000000000000000000600052603260045260246000fd5b9060005260206000200160009054906101000a900473ffffffffffffffffffffffffffffffffffffffff1673ffffffffffffffffffffffffffffffffffffffff168473ffffffffffffffffffffffffffffffffffffffff16141561063357600191505b808061063e9061128b565b915050610589565b5080915050919050565b60006106936040518060400160405280601781526020017f5765206861766520256420746f74616c207761766573210000000000000000008152506000546109d8565b600054905090565b60036020528060005260406000206000915090505481565b60606004805480602002602001604051908101604052809291908181526020016000905b828210156107fb57838290600052602060002090600302016040518060600160405290816000820160009054906101000a900473ffffffffffffffffffffffffffffffffffffffff1673ffffffffffffffffffffffffffffffffffffffff1673ffffffffffffffffffffffffffffffffffffffff16815260200160018201805461076090611259565b80601f016020809104026020016040519081016040528092919081815260200182805461078c90611259565b80156107d95780601f106107ae576101008083540402835291602001916107d9565b820191906000526020600020905b8154815290600101906020018083116107bc57829003601f168201915b50505050508152602001600282015481525050815260200190600101906106d7565b50505050905090565b61089a816040516024016108189190610f35565b6040516020818303038152906040527f41304fac000000000000000000000000000000000000000000000000000000007bffffffffffffffffffffffffffffffffffffffffffffffffffffffff19166020820180517bffffffffffffffffffffffffffffffffffffffffffffffffffffffff8381831617835250505050610a74565b50565b6109378383836040516024016108b593929190610f87565b6040516020818303038152906040527fe0e9ad4f000000000000000000000000000000000000000000000000000000007bffffffffffffffffffffffffffffffffffffffffffffffffffffffff19166020820180517bffffffffffffffffffffffffffffffffffffffffffffffffffffffff8381831617835250505050610a74565b505050565b6109d48282604051602401610952929190610f57565b6040516020818303038152906040527f319af333000000000000000000000000000000000000000000000000000000007bffffffffffffffffffffffffffffffffffffffffffffffffffffffff19166020820180517bffffffffffffffffffffffffffffffffffffffffffffffffffffffff8381831617835250505050610a74565b5050565b610a7082826040516024016109ee929190610fcc565b6040516020818303038152906040527f9710a9d0000000000000000000000000000000000000000000000000000000007bffffffffffffffffffffffffffffffffffffffffffffffffffffffff19166020820180517bffffffffffffffffffffffffffffffffffffffffffffffffffffffff8381831617835250505050610a74565b5050565b60008151905060006a636f6e736f6c652e6c6f679050602083016000808483855afa5050505050565b828054610aa990611259565b90600052602060002090601f016020900481019282610acb5760008555610b12565b82601f10610ae457805160ff1916838001178555610b12565b82800160010185558215610b12579182015b82811115610b11578251825591602001919060010190610af6565b5b509050610b1f9190610b23565b5090565b5b80821115610b3c576000816000905550600101610b24565b5090565b6000610b53610b4e846110d8565b6110a7565b905082815260208101848484011115610b6b57600080fd5b610b76848285611217565b509392505050565b600081359050610b8d816113d2565b92915050565b600082601f830112610ba457600080fd5b8135610bb4848260208601610b40565b91505092915050565b600060208284031215610bcf57600080fd5b6000610bdd84828501610b7e565b91505092915050565b600060208284031215610bf857600080fd5b600082013567ffffffffffffffff811115610c1257600080fd5b610c1e84828501610b93565b91505092915050565b6000610c338383610e75565b905092915050565b610c44816111cf565b82525050565b610c53816111cf565b82525050565b6000610c6482611118565b610c6e818561113b565b935083602082028501610c8085611108565b8060005b85811015610cbc5784840389528151610c9d8582610c27565b9450610ca88361112e565b925060208a01995050600181019050610c84565b50829750879550505050505092915050565b610cd7816111e1565b82525050565b6000610ce882611123565b610cf28185611157565b9350610d02818560208601611226565b610d0b816113c1565b840191505092915050565b6000610d2182611123565b610d2b8185611168565b9350610d3b818560208601611226565b610d44816113c1565b840191505092915050565b6000610d5c603483611168565b91507f547279696e6720746f207769746864726177206d6f7265206d6f6e657920746860008301527f616e2074686520636f6e7472616374206861732e0000000000000000000000006020830152604082019050919050565b6000610dc2602783611168565b91507f4661696c656420746f207769746864726177206d6f6e65792066726f6d20636f60008301527f6e74726163742e000000000000000000000000000000000000000000000000006020830152604082019050919050565b6000610e2860008361114c565b9150600082019050919050565b6000610e42600883611168565b91507f576169742031356d0000000000000000000000000000000000000000000000006000830152602082019050919050565b6000606083016000830151610e8d6000860182610c3b565b5060208301518482036020860152610ea58282610cdd565b9150506040830151610eba6040860182610ec5565b508091505092915050565b610ece8161120d565b82525050565b610edd8161120d565b82525050565b6000610eee82610e1b565b9150819050919050565b60006020820190508181036000830152610f128184610c59565b905092915050565b6000602082019050610f2f6000830184610cce565b92915050565b60006020820190508181036000830152610f4f8184610d16565b905092915050565b60006040820190508181036000830152610f718185610d16565b9050610f806020830184610c4a565b9392505050565b60006060820190508181036000830152610fa18186610d16565b9050610fb06020830185610c4a565b8181036040830152610fc28184610d16565b9050949350505050565b60006040820190508181036000830152610fe68185610d16565b9050610ff56020830184610ed4565b9392505050565b6000602082019050818103600083015261101581610d4f565b9050919050565b6000602082019050818103600083015261103581610db5565b9050919050565b6000602082019050818103600083015261105581610e35565b9050919050565b60006020820190506110716000830184610ed4565b92915050565b600060408201905061108c6000830185610ed4565b818103602083015261109e8184610d16565b90509392505050565b6000604051905081810181811067ffffffffffffffff821117156110ce576110cd611392565b5b8060405250919050565b600067ffffffffffffffff8211156110f3576110f2611392565b5b601f19601f8301169050602081019050919050565b6000819050602082019050919050565b600081519050919050565b600081519050919050565b6000602082019050919050565b600082825260208201905092915050565b600081905092915050565b600082825260208201905092915050565b600082825260208201905092915050565b60006111848261120d565b915061118f8361120d565b9250827fffffffffffffffffffffffffffffffffffffffffffffffffffffffffffffffff038211156111c4576111c3611305565b5b828201905092915050565b60006111da826111ed565b9050919050565b60008115159050919050565b600073ffffffffffffffffffffffffffffffffffffffff82169050919050565b6000819050919050565b82818337600083830152505050565b60005b83811015611244578082015181840152602081019050611229565b83811115611253576000848401525b50505050565b6000600282049050600182168061127157607f821691505b6020821081141561128557611284611363565b5b50919050565b60006112968261120d565b91507fffffffffffffffffffffffffffffffffffffffffffffffffffffffffffffffff8214156112c9576112c8611305565b5b600182019050919050565b60006112df8261120d565b91506112ea8361120d565b9250826112fa576112f9611334565b5b828206905092915050565b7f4e487b7100000000000000000000000000000000000000000000000000000000600052601160045260246000fd5b7f4e487b7100000000000000000000000000000000000000000000000000000000600052601260045260246000fd5b7f4e487b7100000000000000000000000000000000000000000000000000000000600052602260045260246000fd5b7f4e487b7100000000000000000000000000000000000000000000000000000000600052604160045260246000fd5b6000601f19601f8301169050919050565b6113db816111cf565b81146113e657600080fd5b5056fea26469706673582212208a478f16ceb6d32389fa9a17a0fbdb1ca9e5b7f672d0e5e513998427bb3a062a64736f6c63430008000033",
  "linkReferences": {},
  "deployedLinkReferences": {}
}